:020000040040BA
:10000000083900206513400061134000611340006F
:1000100061134000611340006113400000000000C4
:10002000000000000000000000000000611340001C
:1000300061134000000000006113400061134000A4
:1000400061134000611340006113400061134000E0
:100050006113400061134000611340000000000084
:1000600061134000611340000000000011024000D5
:1000700025024000000000004D0C400061134000CC
:100080000000000000000000611340006113400008
:1000900061134000990E400061134000910B400035
:1000A00061134000611340000000000000000000E8
:1000B0000000000061134000611340006113400024
:1000C00061134000611340006113400010B5054CFE
:1000D000237833B9044B13B10448AFF300800123F4
:1000E000237010BD3C04002000000000C42B400021
:1000F0000C4B43B10C480D4910B5AFF300800C48D0
:10010000036823B910BD0A48036833B97047094B27
:10011000002BF7D0BDE810401847064B002BF5D058
:10012000184700BF00000000C42B4000400400201E
:10013000C42B4000000000002DE9F84381460F4623
:10014000124B984705464846114B9847054013D037
:10015000104C04F1600603E0B4420DD010345DB1E0
:100160002068B842F8D161682942F5D0E368984721
:10017000636825EA0305EFE7074B1B6823B1074BCC
:100180001B680BB148469847BDE8F883AF104000A4
:10019000B310400058040020DC080020CC040020EC
:1001A000F8B5184C2668062E29D84FF0000C644686
:1001B000154F04E00134E4B2A446A64209D3A64692
:1001C00025017D598D42F5D107EB04156D689542E7
:1001D000F0D10D4D4FEA0E1E05EB0E0445F80E1042
:1001E0006260A3600699E1600136664504BF054977
:1001F0000E6011461A46054B98470020F8BD0120B5
:10020000F8BD00BFC8040020580400207D10400045
:1002100008B50B210148024B984708BD000E0E405F
:100220003901400008B50C210148024B984708BD30
:1002300000100E403901400008B51520014B9847C9
:1002400008BD00BFC1124000436823F4702343601F
:100250004368090401F4702119434160704710B4E8
:1002600043F69923046914F0010F03D1013BF9D13E
:10027000012009E08368406810F0020F1CBFC3F33F
:10028000034010700B80002010BC704730B443F660
:100290009924056915F0020F03D1013CF9D1012021
:1002A0000CE0446814F0020F06D0120402F470222D
:1002B00011430BB141F08071C160002030BC704728
:1002C00032B900EB8100036B23F001030363704735
:1002D00000EB8100036B43F001030363704732B905
:1002E00000EB8100036B23F002030363704700EB14
:1002F0008100036B43F002030363704700EB81014D
:100300000B6B23F0F0030B630B6B1A430A6370470C
:1003100010B489014318022444504FF0FF31996210
:10032000196A5A6010BC7047890105234350704711
:1003300000EB8111CA61704700EB81114A6270477E
:1003400000EB8111086A7047F0B486B00224019472
:100350000824029420240394802404940A9CE40B2F
:100360000594B0EB510F14D84C0CA04217D20125C4
:1003700001AF57F82540B1FBF4F4260C84420AD3B0
:1003800086420DD90135052DF3D1002006B0F0BC11
:1003900070470020FAE70020F8E70120F6E7002583
:1003A0002AB106A901EB850151F8141C1160002B3C
:1003B000F3D01D600120E9E72A4B994249D8A3F503
:1003C0007A5399422BD910B4274CA4FB0234A40BC6
:1003D000043C264B0B449B00B2FBF3F2043AFF2C87
:1003E00039D9002101316408FF2C0DD90729F9D131
:1003F00013029BB2090401F4E0210B43E4B223434E
:100400000361002010BC7047FF2AF1D90629EFD8FC
:1004100001315208FF2AEBD90629F9D9E8E749004A
:10042000B2FBF1F2043AFF2A11D90023013352083A
:10043000FF2A01D9072BF9D1110289B21B0403F459
:10044000E0230B43D2B21A4302610020704700231D
:10045000F2E701207047FF2A88BF0021D8D8002189
:10046000C6E700BF801A0600F11976050012FD3FAD
:1004700038B504460D464FF0FF338362036A80238C
:100480000360036B082303602023036004230360DD
:100490000A684968054B9847012814BF00200120CD
:1004A0006B7A012B04BF4023236038BDB9034000A1
:1004B0000A4659B103780129C4BF417841EA0323B0
:1004C000022A04DD827842EA032300E00023184672
:1004D00070470000F8B5CC68002C4FD00B4605469D
:1004E0008E68002068604A68120202F4407242F48A
:1004F0008052097C090401F4FE010A436A60E86045
:1005000059681846224B9847E860012C0FD0012308
:100510002B6000202B6A13F4807F36D147F22F51D5
:1005200047F230574FF0010E4FF0020C19E0032351
:100530002B600120EEE70A4670460CE008B9C5F8CA
:1005400000C013F0020FF6D070462B6B3370013CE5
:1005500001363A4664B12B6A13F4807F11D1511EE3
:100560008AB1012CEAD013F0020FEED10A46F1E76E
:100570002B6A13F0010FFBD02B6A00E00124204608
:10058000F8BD0524FBE70924F9E70524F7E700BFD8
:10059000B104400070B5CD68002D35D00B4604463F
:1005A0008E68002060600A7C120402F4FE02496832
:1005B000090201F440710A436260E060596818461C
:1005C000154B9847E060236A13F4807F06D0052519
:1005D0001BE05DB1236A13F4807F18D113F0040F80
:1005E000F7D033786363013D0136F2E7236A13F4F1
:1005F000807F0ED113F0040FF8D002232360236A0A
:1006000013F0010FFBD000E00125284670BD052541
:10061000FBE70525F9E700BFB104400010B40B016A
:10062000934214D9C9004B0803EBC202B2FBF1F2AA
:10063000D3085C1E4FF6FE718C4201D9012017E0F1
:10064000416841F4002141600CE0012010E05908AC
:1006500001EBC202B2FBF3F2D3085C1E4FF6FE714F
:100660008C42F2D8120402F4E0221A430262002003
:1006700010BC70470A4BC0F8E4300023436043626B
:10068000836288230360242303604FF48073036034
:100690004FF4002303604FF400330360704700BF42
:1006A0000041535570B505460C4616460F4B98470A
:1006B00000220F4B1A60A4B13246216828460D4B28
:1006C0009847024678B96368A1680B4321690B43D8
:1006D000E1680B4306490B6069680B436B60104689
:1006E00070BD0122FBE70122F9E700BF750640005B
:1006F000D00400201D0640004023036070471023F3
:100700000360704781607047C160704740697047FF
:10071000436913F0020FFBD0C1F30801C16100204F
:100720007047000070B50C46097839B10546044E93
:100730002846B04714F8011F0029F9D170BD00BF49
:1007400011074000436913F0010F05D08369C3F31B
:1007500008030B6000207047012070474FF40043EE
:10076000436070470122014B1A607047D404002097
:1007700010B582B0074B009301234FF400420B21C8
:100780000548064CA0474FF40062054B1A6002B0C2
:1007900010BD00BF65074000000E0E40A1014000E3
:1007A00000E100E030B585B01320104B9847104BA6
:1007B0000193104B029301A90F48104B9847104B1F
:1007C0004FF40022C3F88020BFF34F8FBFF36F8F29
:1007D000C3F88021002183F813131A60064D094CD9
:1007E0002846A0470128FBD005B030BDC11240000B
:1007F000000E2707801A06000080014071044000A7
:1008000000E100E09909400010B504460846194B84
:100810009847D4F8503123F00103C4F85031D4F88C
:10082000583143F00803C4F85831D4F8503123F05C
:100830003003C4F85031D4F8503143F02003C4F8E9
:100840005031D4F8503123F40073C4F85031D4F847
:10085000503123F48063C4F85031D4F8503143F45C
:100860008063C4F85031D4F8503123F40063C4F8E5
:10087000503110BDC112400010B50D4B98470D4CC2
:100880000B2120460C4B98474FF480122146012043
:100890000A4B98470A4B22221A644FF480721A605E
:1008A0001A46936813F4807FFBD0064B984710BD1F
:1008B00071074000000E0E40090840000109400089
:1008C00000040E40A507400038B5094D0021284618
:1008D000084CA04701212846A04702212846A047EE
:1008E00003212846A0470448044B984738BD00BF61
:1008F00000800140D50A40006E5E880101000020A2
:1009000008B50B4620B911461846044B984708BD58
:1009100011461846024B984708BD00BF8D0F400096
:10092000910F400008B5014B984708BDD504400021
:1009300008B5014B984708BD950540002DE9F041E9
:1009400086B007464C1C0125114EDFF8488010E0A8
:100950002178FF2918D08DF80430029530238DF8C6
:1009600014300495039201A93846B04708280CD0EA
:100970000234224614F8013CFF2BE9D0FE2BEAD1C9
:100980004AF26A70C047F3E7002006B0BDE8F08184
:100990003109400001000020F0B593B00746012462
:1009A0008DF8474000250C951095FF238DF83030C9
:1009B0000D940DF147030E930F9430268DF840608F
:1009C0000DEB0601414B9847009501958DF8186095
:1009D0000A238DF808300394CDF810D0059402A9AD
:1009E00038463B4DA8478DF82C600B238DF81C3002
:1009F000089401AB09930A9407A93846A847019BBC
:100A0000009A43EA0223C3F30723262B02D00120D6
:100A100013B0F0BD0023019302931C238DF81C300A
:100A200008948DF82C6001AB09930A9407A9384605
:100A3000A8471D238DF81C3008948DF82C6002AB5C
:100A400009930A9407A93846A847019B7F2B01D038
:100A50000120DDE7029BA22BFAD100230093019332
:100A6000029301238DF81C30089330228DF82C203E
:100A70000A9301AB099307A93846154CA04712AB5E
:100A8000AD2243F8402D099307A938460F4B9847EC
:100A9000CDF824D007A93846A047029B009A9A4275
:100AA00001D00120B4E701AB099307A93846074BF1
:100AB0009847CDF824D007A93846054B9847019BA5
:100AC0000098C01A18BF0120A2E700BF31094000FA
:100AD0002509400008B511292AD8DFE801F02B09C3
:100AE0002D0B0D0F11131517191B1D1F2123252762
:100AF000144922E0144920E014491EE014491CE086
:100B000014491AE0144918E0144916E0144914E095
:100B1000144912E0144910E014490EE014490CE0A5
:100B200014490AE0144908E0144906E0144904E0B5
:100B3000012008BD134900E01349144B98470020D9
:100B400008BD00BFC02A4000C81F40001820400058
:100B50006C204000D01E4000201F4000741F400049
:100B60001C2540000C264000FC264000EC274000DD
:100B7000282440003423400040224000DC2840006C
:100B8000D0294000C0204000BC1E40003D0940006C
:100B900008B500210548064B984710F0100F04D007
:100BA000044A13780133DBB2137008BD0000014022
:100BB00041034000F204002030B585B01720144BEB
:100BC0009847144D009502AB03AA29460120124C08
:100BD000A047124C029A42F4804200212046104B5A
:100BE0009847039AB5FBF2F2002120460D4B984737
:100BF0004FF400020C4B1A601022002120460B4BD0
:100C00009847002120460A4B984705B030BD00BFE9
:100C1000C1124000000E27074903400000000140B8
:100C2000110340003103400000E100E039034000BF
:100C300029034000034A1368591C1160024AD0542A
:100C4000704700BFDC040020F404002010B50A48FF
:100C50000A4B984710F4805F00D110BD084C214624
:100C60000548084B98470122074B1A702068C0B20C
:100C7000064B9847F1E700BF004002400D074000D7
:100C8000E404002045074000E0040020350C40004B
:100C900008B504490448054B984710B10122044B9C
:100CA0001A7008BDEC2A4000F40400209D19400091
:100CB000F004002008B50122074B1A70074B984733
:100CC000002307491A46CA540133B3F57A7FFAD193
:100CD0000022044B1A6008BDF1040020910C400072
:100CE000F4040020DC04002030B587B0164D2946FE
:100CF0000520164CA04729460620A0476C46144DF7
:100D00000FCD0FC495E8030084E803000E20114BBB
:100D10009847114C114A69462046114B98474FF0AD
:100D2000FF3120460F4B984720460F4B98472046EF
:100D30000E4B98474FF480420D4B1A60012120461C
:100D40000C4B984707B030BD01000008B9104000B7
:100D5000D42A4000C112400000400240000E270784
:100D6000A506400009074000F9064000FF064000C4
:100D700000E100E00507400030B583B00C200B4BCC
:100D800098470B4C0B4B009370234FF480620C215F
:100D90002046094DA8474FF48052084B1A604FF483
:100DA00080612046064B984703B030BDC112400019
:100DB00000100E40B50C4000A101400000E100E031
:100DC000AB10400010B54FF000610C200E4CA04756
:100DD0004FF000610D20A0474FF000610E20A047AA
:100DE0004FF000610B20A047084B4FF40012C3F8EE
:100DF0008020BFF34F8FBFF36F8FC3F88021002196
:100E000083F815131A6010BDB910400000E100E02E
:100E100010B5134C2046134B9847022323608023C0
:100E20002360636823F001036360636843F0100389
:100E300063600E2120460C4B984700221146204645
:100E40000A4B9847002211462046094B984700223A
:100E500011462046074B984701236361236010BD6C
:100E6000008000403902400049024000C1024000B9
:100E7000DF024000FD024000044B1B78DBB2044A55
:100E800013600022034B1A60704700BFD804002093
:100E9000EC040020E80400200F4B1B6913F0010F45
:100EA00000D1704710B582B00DF107020B490A4816
:100EB0000B4B98470B4A1368591E11600BB902B0CF
:100EC00010BD094B19684A1C1A6000231A4689B2E2
:100ED0000148064CA047F2E700800040DA040020F9
:100EE0005F024000EC040020E80400208D02400076
:100EF00010B50C460022084B1A7001460748084BF3
:100F00009847054A07491378DBB2A34202D20B780F
:100F1000002BF8D010BD00BFF204002000400240BA
:100F200025074000F104002010B50E480E4B9847ED
:100F30003E2100200D4B98470D4CA0470028FCD0C7
:100F40000C4B98470C4A0D4B9A620D4CA047002859
:100F5000FCD010200B4B98470B4B98470148024B95
:100F6000984710BD000E2707211540003D12400094
:100F700091124000A1124000013F132000040E40D6
:100F8000B1124000D91140001114400001637047B4
:100F9000416370474264B1F1C05F39D013D8B1F1F9
:100FA000006F25D0B1F1805F0AD1036F134303674F
:100FB000436F416F0B4023EA02034367426070476F
:100FC0000029FBD17047B1F1205F20D009D8B1F1E1
:100FD000005FF3D1036F13430367436F134343670A
:100FE000ECE7B1F1405F12D0B1F1605F0FD0E5E7FF
:100FF00010B4016F046FD34321401C4619400167B0
:10100000436F416F0B4023404367426010BC704701
:10101000036F016F0B4023EA02030367436F13431F
:101020004367CBE7416412F0010F14BF41660166CC
:1010300012F00A0F14BF0162416212F0020F07D1D1
:1010400012F0080F18BFC0F88410416101607047AA
:10105000C0F88010F9E710B4019C416444B90166FE
:1010600043B1016542B941630161016010BC704741
:101070004166F5E74165F5E70163F5E712F0100F0A
:1010800010D0C0F8B01012F0200F14BFC0F8D41068
:10109000C0F8D01012F0400F14BFC0F8C010C0F854
:1010A000C4107047C0F8B410704701647047C06C3A
:1010B0007047806C7047000070B582B00D464309E0
:1010C00003F5001303F207735C0201F0F043B3F180
:1010D000005F53D00AD8B3F1805F2DD0B3F1C05F69
:1010E0003BD0B3F1006F15D0002023E0B3F1405F97
:1010F00055D0B3F1605F52D0B3F1205FF4D100F06E
:101100001F0101262A4606FA01F120462F4B984777
:1011100030460FE000F01F000126864032464FF0B7
:10112000006120462A4B984715F0010F14BF6666F0
:101130002666012002B070BD00F01F000126864027
:1011400032464FF080512046214B984715F0010F51
:1011500014BF666626660120ECE700F01F0001263A
:10116000864032464FF0C0512046194B984715F043
:10117000010F14BF666626660120DBE700F01F0042
:101180000126864032464FF000512046104B9847CA
:1011900015F0010F14BF666626660120CAE705F048
:1011A000605200F01F01012605EA06030093C5F313
:1011B0008003B2F1605F14BF0022012206FA01F140
:1011C0002046044CA0473046B4E700BF251040003D
:1011D000950F400057104000174A136B23F070031F
:1011E00018431063936E13F0080F0AD14FF4006395
:1011F00011498A6E12F0080F03D1013BF9D1012089
:1012000070470D4A136B23F0030343F0020313638B
:10121000936E13F0080F0AD14FF4006306498A6EEB
:1012200012F0080F05D1013BF9D1012070470020D1
:1012300070470020704700BF00040E40C8B9114A33
:10124000136A090289B223F45C1323F0030343F405
:101250005C1343F001030B431362936E13F0010F11
:10126000FBD0084A136A43F09B7343F48033136244
:10127000704704490B6A044A1A40044B13430B623B
:10128000704700BF00040E40FCFFC8FE020037019B
:10129000024B986E00F48030704700BF00040E408F
:1012A0004FF00052014B9A62704700BF00040E409D
:1012B000024B986E00F00200704700BF00040E4021
:1012C00022281ED81F280CD8114B9A69012383406D
:1012D000934318D0012303FA00F00D4B186100204E
:1012E000704720380A4BD3F80821012383409343E9
:1012F0000BD0012303FA00F0054BC3F800010020D6
:10130000704701207047002070470020704700BFE1
:1013100000040E4010B50B200F4CA0470C20A04736
:101320000E4B4FF400021A61C3F8A0205A634FF429
:1013300080225A61C3F8A0205A66C3F890205A65EB
:101340005A62C3F880201A6F22F480221A675A6FFB
:1013500022F480225A6710BDC1124000000E0E40D8
:10136000FEE7000008B5214B214A9A4228D9214BBB
:101370001E4A9A420CD2013B9B1A23F0030304330A
:1013800013441B4951F8040B42F8040B9A42F9D15B
:1013900000BF194B194A9A420AD2013B9B1A23F00B
:1013A000030304331344002142F8041B9A42FBD187
:1013B000134B144A9A60144B9847144B9847FEE716
:1013C0000A4B0B4A9A42E3D20A4B0848181A1146B4
:1013D000043A02440028DBD0C1F1040152F80409A8
:1013E00043F8040DCA42F9D1D2E700BF0000002043
:1013F000C42B40003C040020040900203C040020D1
:1014000000ED00E0000040009D16400095154000F2
:101410003C4B1B6B03F00303032B0ED8DFE803F0F8
:10142000021C3838384B5B6913F0800F14BF4FF43F
:1014300000424FF4FA42354B1A60324B1B6B03F0FB
:101440007003702B55D02F4B1A6B3049C2F3021228
:101450000B68D3400B6070472A4B1B6A13F0807FE8
:1014600003D02B4A294B1A60E7E72A4A274B1A6018
:10147000244B1B6A03F07003102B05D0202BDCD10A
:10148000234A224B1A60D8E7234A204B1A60D4E73C
:101490001C4B1B6A13F0807F18D01D4A1B4B1A602F
:1014A000184B1B6B03F00303022B164A07BF916A0C
:1014B000926AD16AD26A1548C1F30A41036801FBF6
:1014C0000333D2B2B3FBF2F30360B6E7114A0F4B1A
:1014D0001A600C4B1B6A03F07003102B05D0202BF5
:1014E000DED10B4A094B1A60DAE70B4A074B1A6048
:1014F000D6E7064A13680949A1FB03135B0813608A
:10150000704700BF00040E4010140E400C00002075
:10151000001BB70000093D0000127A00ABAAAAAA7E
:10152000124B984211D9124B984213D9114B984241
:1015300014D9114B984215D9104B984294BF4FF0D3
:1015400004220F4A0F4B1A6070474FF080620D4B18
:101550001A6070470C4A0B4B1A6070470B4A094BD4
:101560001A6070470A4A074B1A607047FF2C310116
:10157000FF596202FF869303FFB3C404FFE0F50541
:1015800000050004000A0E400001000400020004EF
:101590000003000408B5254B98472548254B98477C
:1015A000254B9847254B9847254B9847254B9847FF
:1015B000254B9847254B984703212548254CA047A4
:1015C00003212548A04703212448A047032124489C
:1015D000A04703212348A04703212348A047234BCA
:1015E0009847234B9847234B4FF480021A61C3F866
:1015F000A0205A631A6303211F48A04700221F4BF3
:101600001A7019461E4A01E013781BB90B78DBB239
:10161000092BF9D91B4E1C4D1C4CB04729461C48C0
:101620001C4B984720461C4B9847F6E7290F400073
:1016300050140E405D07400015134000B90B4000E8
:10164000E90C4000790D4000C50D4000110E40002E
:10165000F42A4000F10E4000082B4000202B4000EF
:10166000302B4000482B4000602B400079084000A0
:10167000C9084000000E0E407C2B4000F204002000
:10168000F0040020790E4000842B400025CA82001F
:1016900000400240250740000100002070B50F4EB9
:1016A0000F4D761BB61018BF002405D0013455F835
:1016B000043B9847A642F9D10A4E0B4D761B01F028
:1016C0006FFAB61018BF002406D0013455F8043B59
:1016D0009847A642F9D170BD70BD00BFAC2B400049
:1016E000AC2B4000B42B4000AC2B40002DE9F04166
:1016F0004FF0010E744600254FF0FF362B198B4238
:1017000000EB06070DD23F5D10F803C0BC452DD29B
:101710001D460124A3EB060E2B198B4200EB060796
:10172000F1D34FF00108C2F800E0444600254FF025
:10173000FF372B19994200EB070E0ED91EF804E073
:1017400010F803C0F44518D91D460124A3EB07087F
:101750002B19994200EB070EF0D80137701C874215
:1017600024BFC2F800803846BDE8F0810CD04FF0AD
:10177000010E2E4674467544C0E70BD04FF00108A9
:101780002F4644464544D4E7744512BF01341D46F4
:101790000124B3E7444512BF01341D460124C8E7C4
:1017A0002DE9F04FADF2144D164605468B46104616
:1017B000194603AA1C46FFF799FF03AB81460DF2B9
:1017C0000C4243F8044F9342FBD14CB1631E721E8E
:1017D00004A812F8011F40F8213013F1FF33F8D2AA
:1017E00003994A463144304600F062FA00286FD12E
:1017F00009F1FF330093F318824601932346804694
:10180000544658469A4608EB0A073A1A00212844DB
:1018100000F0FEF9002856D1002F54D0EB1904AA8D
:1018200013F8013C52F823304BB124B1039A934290
:1018300001D2AAEB0203984400243846E3E74C4562
:1018400023460AF1FF3E38BF4B46734513D208EBDF
:10185000030216F803C0A85C84452A4406EB030182
:1018600006D02CE011F801CF12F8010F844526D1E3
:1018700001337345F6D34C45009980F08980009B75
:1018800008EB0302019BA85C1B7898422A447FD195
:10189000019804F1FF3B06E010F801CD12F801EDCC
:1018A000F44503D119464B1E9B45F5D101348C42BA
:1018B00070D8039C3846A044AAEB0404A3E7C9F1FE
:1018C00001029044B7E700200DF2144DBDE8F08FFF
:1018D000A4EB09034B4538BF4B46013309F1FF38F0
:1018E000039306EB080358464FF0000ACB4699468F
:1018F0000AEB04073A1A0021284400F089F900286D
:10190000E1D1002FDFD0EB1904AA13F8013C52F803
:101910002330A3BB611E8B4515D20AEB0B0216F8D0
:101920000B3015F802E09E452A4406EB0B005B469F
:1019300006D027E010F801CF12F801EFF44521D1CD
:1019400001338B42F6D3B8F1FF3F11D00AEB080206
:1019500099F80010AB5C99422A440FD14B4605E040
:1019600013F8010D12F8011D884207D1B342F7D1D7
:1019700005EB0A000DF2144DBDE8F08F039B9A446D
:101980003846B5E7CBF1010292449A443846AFE7B6
:1019900049468BE705EB080096E700BF0278002A6E
:1019A00000F001812DE9F04F91F8008085B04446A8
:1019B000B8F1000F16D0864601F1010C012703E0B3
:1019C00013F8014B6CB19C46A24214BF002707F0EC
:1019D00001071EF8012F6346002AF1D19CF8003060
:1019E000FBB917B105B0BDE8F08F0E46054641467C
:1019F0000130ACEB060400F08BF9074688B1012CEE
:101A0000F0D02819874294BFC11B01211F2C8B469F
:101A10000BD9234632463846FFF7C2FE05B0BDE873
:101A2000F08F002005B0BDE8F08F03AA21463046B4
:101A3000FFF75CFE0399804602463144304600F0D1
:101A400037F9002857D108F1FF330093F318814686
:101A5000054601935846B2466619321A00213844A9
:101A600000F0D6F80028DCD1002EDAD0C845434675
:101A700038BF4B469C4212D95A191AF80310B85C69
:101A800081423A440AEB030E06D02CE01EF8010F07
:101A900012F8011F884226D101339C42F6D1C84575
:101AA000009940F28380009BEA18019BB85C1B7888
:101AB00098423A447AD1019809F1FF3B06E010F8C8
:101AC00001CD12F801EDF44503D119464B1E5B45DB
:101AD000F5D109F10109894557D8039B30461D44CA
:101AE000A4EB0309B8E7C8F1010215441D444FF007
:101AF00000093046B0E7A4EB0803434538BF43462E
:101B0000013308F1FF39039306EB0903584600251A
:101B1000BB469A4667193A1A0021584400F078F8F3
:101B200000287FF47EAF002F3FF47BAF444515D9EA
:101B300008EB050216F808301BF8020098425A44D8
:101B400006EB0801434606D023E011F801EF12F836
:101B5000010F86451DD101339C42F6D1B9F1FF3FFB
:101B600012D005EB09029AF800301BF802109942D6
:101B70005A4414D1534605E013F8010D12F8011D23
:101B800088420CD1B342F7D15F46781905B0BDE861
:101B9000F08FC8F1010215441D443846BAE7039B93
:101BA00038461D44B6E70B7813B97047414690E7B5
:101BB00000207047024B13B1024800F005B870478F
:101BC00000000000D51B4000002301461A461846BD
:101BD00000F012B938B50A4C0A4D641BA4100AD0A3
:101BE00004F18043013B05EB8305013C55F80439C2
:101BF0009847002CF9D1BDE8384000F0DBBF00BFAA
:101C0000C42B4000C02B4000704700BF704700BF8E
:101C100001F0FF01102A2BDB10F0070F08D010F89D
:101C2000013B013A8B422DD010F0070F42B3F6D1A1
:101C3000F0B441EA012141EA014122F007047FF0BA
:101C400000070023F0E80256083C85EA010586EA11
:101C5000010685FA47F5A3FA87F586FA47F6A5FA4D
:101C600087F68EB9EED1F0BC01F0FF0102F0070259
:101C700032B110F8013B013A83EA010313B1F8D104
:101C80000020704701387047002D06BF35460338E5
:101C9000073815F0010F07D1013015F4807F02BF1E
:101CA000013015F4C03F0130F0BC0138704700BF6F
:101CB000032A70B422D940EA01039B0711D00378AC
:101CC0000C78A3421DD10A44013105E010F8013F10
:101CD00011F8014BA34214D19142F7D1002070BCFE
:101CE00070470D680668AE420C46034601F10401D8
:101CF00000F1040008D1043A032AF2D8002ADED108
:101D0000ECE7181B70BC704721461846D7E700BFA8
:101D1000C9B2002941D08207F0B467D00378002B04
:101D200068D0994237D0431C04E013F8010B90B3FC
:101D300081422FD09A071C46F7D1256841EA01233A
:101D400043EA034383EA0506A6F10130A5F1013217
:101D500020EA060022EA0502024312F0803F11D178
:101D6000204650F8046F83EA0607A7F10135A6F173
:101D7000013225EA070522EA06022A4312F0803FD3
:101D8000EFD00446207818B905E014F8010F10B11F
:101D90008142FAD12046F0BC7047830724D00378F3
:101DA000002BF9D0431C03E002780133002AF3D062
:101DB00099071846F8D11968A1F1013222EA010207
:101DC00012F0803F08D153F8041FA1F1013222EA3A
:101DD000010212F0803FF6D01A78184642B110F88E
:101DE000013F002BFBD170470346E4E70446A4E71C
:101DF000184670471846CEE72DE9F8432C4D0646A5
:101E0000286898460F469146FFF7FEFE294B1C684E
:101E1000D4F84831002B3ED05A681F2A1CDC02F14E
:101E2000010E76B103EB82010124C1F88890D3F84A
:101E3000880194402043022EC3F88801C1F808812C
:101E400023D00232C3F804E0286843F82270FFF779
:101E5000DDFE0020BDE8F883174B0BB34FF4C870CC
:101E6000AFF300800346D8B1D4F8482102600021C6
:101E700041600A46C4F848014FF0010EC0F88811CD
:101E8000C0F88C11002EDCD0CCE7D3F88C110C43B9
:101E9000C3F88C41D5E704F5A673C4F84831BBE715
:101EA0002868FFF7B3FE4FF0FF30BDE8F88300BFAE
:101EB000380400209C2B400000000000E014E17773
:101EC000E51FD703DA10E000FF010408FFFF000060
:101ED000FF011101120017111875323619011A97F6
:101EE000030F37404FBB509C5A576D803D34390229
:101EF0003588220A374034A006020DB70E01FF00D4
:101F0000C0C8C1968C00863D50005190522C5300A1
:101F1000540055885A005BC05C01D302FFFF0000EB
:101F2000FF011101120017111875323619011A97A5
:101F3000030F37404FBB509C5A576D803D343902D8
:101F40003588220A374034A006020DB70E01FF0083
:101F5000E004C0C8C196863D50005190522C5300F9
:101F60005400558857005A405BF05C01D302E000F2
:101F7000FFFF0000FF011101120017111875323622
:101F800019011A97030F37404FBB509C5A576D8069
:101F90003D3439023588220A374034A006020DB795
:101FA0000E01FF00E004C0C8C196863D500051906C
:101FB000522C53005400558857005A905B2C5C05F6
:101FC000D302E000FFFF0000FF0112401711184389
:101FD00019001A4B32094FCA50A85A236D00391202
:101FE00035DA221A37C3230034C0361A068807C0F0
:101FF0000D870E414C00FF00E004C064C14B8635E4
:10200000508951C8529653005400550057005A50F9
:102010005B3C5C00E000FFFFFF01110112001711A3
:102020001875323619011A97030F37404FBB509C71
:102030005A576D803D3439023588220A374034A022
:1020400006020DB70E01FF00E004C0C8C196863D30
:1020500050895190522C53005400558857005AA073
:102060005B785C00D304E000FFFF0000FF0111017A
:10207000120017111875323619011A97030F3740DD
:102080004FBB509C5A576D803D3439023588220A27
:10209000374034A006020DB70E01FF00E004C0C8AF
:1020A000C196863550895190522C53005400558862
:1020B00057005AC85B965C00D302E000FFFF0000A7
:1020C000FF002CFF2EDFFF013C3211010902042822
:1020D00013E514482C0C33783A333BFB3E00431194
:1020E0001610399235DA221A37C3230034C0361A53
:1020F000068807C00D870E414C0048005B00420374
:102100004A8121992440253826825C006300617051
:1021100062807C05208028306C006D806E0070022B
:10212000719473C112401711184319001A4B3209E8
:1021300037C04F6050A86D003D38463F4F600C3CA3
:10214000FF00E57FF9C04124E01476FF33A0422070
:1021500043184C0087D5883FD703D910D382C808CD
:10216000C9807C007D007C037D487D487C087D2003
:102170007D107D0E9000910E911A9131915A9169C6
:102180009175917E9188918F919691A391AF91C411
:1021900091D791E891209200930693E393059305DC
:1021A0009300930493009300930093009300930093
:1021B00093009600970897199702970C97249730E9
:1021C0009728972697029798978097009700C3EDD6
:1021D000A400A800C511C651BF80C710B666B8A537
:1021E000B764B97CB3AFB497B5FFB0C5B194B20FC3
:1021F000C45CC064C14B8C00863D500051C85296EF
:102200005300540055005AC85B965C00D300C3EDE0
:102210007F00DA00E51FE167E000DD7F0500124086
:10222000D304C016C1128C00863D5000512C52249C
:102230005300540055005A2C5B245C00FFFF000043
:102240000E001280130011011200D5100C120D3473
:10225000172518A019031AF01B89220329182BF837
:102260002C0131A032F033C43AB4363F04602780E9
:102270003D0F3E803F40407F416A422944E5454151
:10228000470249644AA14B704C1A4D504E136400EA
:102290006788681A1438243C253026725097517E7E
:1022A00052005300200021233814E900565557FFEF
:1022B00058FF59FF5F04EC0013FF807F813F82329B
:1022C0008301381184708500860387018805893071
:1022D0008D308F859330958599309B859C089D1214
:1022E0009E239F45A055A164A272A37FA48BA595B0
:1022F000A6A7A7B5A8CBA9DDAAECAB1ACE78CF6E5E
:10230000D00AD10CD284D390D41E5A245B1F5C888F
:102310005D60AC6EBEFFBF003128323C823F1201CF
:10232000362F8304530033F41B8A22038400840075
:102330002802FFFF0E001280130011011200D510B9
:102340000C540D341601172518A019031AF01B8917
:10235000220329182BF82C0131A032F033C43AB4EF
:10236000363F046027803D0F3E803F40407F416AFA
:10237000422944E54541470249644AA14B704C1A41
:102380004D504E1364006788681A1438243C253079
:1023900026725097517E520053002000212338149A
:1023A000E900565557FF58FF59FF5F04EC0013FF33
:1023B000807F813F823283013811847085008603DB
:1023C0008701880589308D308F85933095859930C8
:1023D0009B859C089D129E239F45A055A164A272D7
:1023E000A37FA48BA595A6A7A7B5A8CBA9DDAAEC2A
:1023F000AB1ACE78CF6ED00AD10CD284D390D41E33
:102400005A245B1F5C885D60AC6EBEFFBF00312844
:10241000323C3400823F1200363F530033001B89A8
:1024200022032802D900FFFF0E00128013001101C1
:102430001200D5100C120D34172518A019031AF02C
:102440001B89220329182BF82C0131A032F033C448
:102450003AB4363F046027803D0F3E803F40407FC6
:10246000416A422944E54541470249644AA14B700B
:102470004C1A4D504E1364006788681A1438243C77
:10248000253026725097517E5200530020002123A0
:102490003814E900565557FF58FF59FF5F04EC0008
:1024A00013FF807F813F8232830138118470850061
:1024B00086038701880589308D308F859330958517
:1024C00099309B859C089D129E239F45A055A16431
:1024D000A272A37FA48BA595A6A7A7B5A8CBA9DDBB
:1024E000AAECAB1ACE78CF6ED00AD10CD284D3909E
:1024F000D41E5A245B1F5C885D60AC6EBEFFBF00BB
:1025000031503278823F1201362F8304530033F466
:102510001B8A2203840084002802FFFF0E00128021
:10252000FE05130011051200D5100CD40D34160150
:10253000172518A019031AF01B89220329182BF854
:102540002C0131A032F033C43AB4363F0460278006
:102550003D0F3E803F40407F416A422944E545416E
:10256000470249644AA14B704C1A4D504E13640007
:102570006788681A1438243C253026725097517E9B
:1025800052005300200021233814E900565557FF0C
:1025900058FF59FF5F04EC0013FF807F813F8232B8
:1025A00083013811850086038701880589308D30C5
:1025B0008F859330958599309B859C089D129E232D
:1025C0009F45A055A164A272A37FA48BA595A6A741
:1025D000A7B5A8CBA9DDAAECAB1ACE78CF6ED00AEE
:1025E000D10CD284D390D41E5A245B1F5C885D60CA
:1025F000AC6EBEFFBF0031503278823F1200363FD2
:10260000530033C41B8922032802FFFF0E001280EF
:10261000FE05130011031200D5100CD40D34160161
:10262000172518A019031AF01B89220329182BF863
:102630002C0131A032F033C43AB4363F0460278015
:102640003D0F3E803F40407F416A422944E545417D
:10265000470249644AA14B704C1A4D504E13640016
:102660006788681A1438243C253026725097517EAA
:1026700052005300200021233814E900565557FF1B
:1026800058FF59FF5F04EC0013FF807F813F8232C7
:1026900083013811850086038701880589308D30D4
:1026A0008F859330958599309B859C089D129E233C
:1026B0009F45A055A164A272A37FA48BA595A6A750
:1026C000A7B5A8CBA9DDAAECAB1ACE78CF6ED00AFD
:1026D000D10CD284D390D41E5A245B1F5C885D60D9
:1026E000AC6EBEFFBF0031503278823F1200363FE1
:1026F000530033C41B8922032802FFFF0E001280FF
:10270000FE05130011021200D5100CD40D34160171
:10271000172518A019031AF01B89220329182BF872
:102720002C0131A032F033C43AB4363F0460278024
:102730003D0F3E803F40407F416A422944E545418C
:10274000470249644AA14B704C1A4D504E13640025
:102750006788681A1438243C253026725097517EB9
:1027600052005300200021233814E900565557FF2A
:1027700058FF59FF5F04EC0013FF807F813F8232D6
:1027800083013811850086038701880589308D30E3
:102790008F859330958599309B859C089D129E234B
:1027A0009F45A055A164A272A37FA48BA595A6A75F
:1027B000A7B5A8CBA9DDAAECAB1ACE78CF6ED00A0C
:1027C000D10CD284D390D41E5A245B1F5C885D60E8
:1027D000AC6EBEFFBF0031503278823F1200363FF0
:1027E000530033C41B8922032802FFFF0E0012800E
:1027F000FE05130011011200D5100CD40D34160182
:10280000172518A019031AF01B89220329182BF881
:102810002C0131A032F033C43AB4363F0460278033
:102820003D0F3E803F40407F416A422944E545419B
:10283000470249644AA14B704C1A4D504E13640034
:102840006788681A1438243C253026725097517EC8
:1028500052005300200021233814E900565557FF39
:1028600058FF59FF5F04EC0013FF807F813F8232E5
:1028700083013811850086038701880589308D30F2
:102880008F859330958599309B859C089D129E235A
:102890009F45A055A164A272A37FA48BA595A6A76E
:1028A000A7B5A8CBA9DDAAECAB1ACE78CF6ED00A1B
:1028B000D10CD284D390D41E5A245B1F5C885D60F7
:1028C000AC6EBEFFBF0031503278823F1200363FFF
:1028D000530033C41B8922032802FFFF0E0012801D
:1028E000FE05130011021200D5100CD40D34160190
:1028F000172518A019031AF01B89220329182BF891
:102900002C0131A032F033C43AB4363F0460278042
:102910003D0F3E803F40407F416A422944E54541AA
:10292000470249644AA14B704C1A4D504E13640043
:102930006788681A1438243C253026725097517ED7
:102940005200530020002123380784023814E90084
:10295000565557FF58FF59FF5F04EC0013FF807F67
:10296000813F823283013811850086038701880503
:1029700089308D308F859330958599309B859C0863
:102980009D129E239F45A055A164A272A37FA48B94
:10299000A595A6A7A7B5A8CBA9DDAAECAB1ACE78BA
:1029A000CF6ED00AD10CD284D390D41E5A245B1F90
:1029B0005C885D60AC6EBEFFBF0031503278823FF4
:1029C0001200363F530033C41B8922032802FFFF45
:1029D0000E001280FE05130011021200D5100CD457
:1029E0000D341601172518A019031AF01B892203AC
:1029F00029182BF82C0131A032F033C43AB4363FF9
:102A0000046027803D0F3E803F40407F416A42295D
:102A100044E54541470249644AA14B704C1A4D5068
:102A20004E1364006788681A1438243C25302672D7
:102A30005097517E52005300200021233814E900A2
:102A4000565557FF58FF59FF5F04EC0013FF807F76
:102A5000813F823283013811850086038701880512
:102A600089308D308F859330958599309B859C0872
:102A70009D129E239F45A055A164A272A37FA48BA3
:102A8000A595A6A7A7B5A8CBA9DDAAECAB1ACE78C9
:102A9000CF6ED00AD10CD284D390D41E5A245B1F9F
:102AA0005C885D60AC6EBEFFBF0031A032F0823F3B
:102AB0001200363F530033C41B8922032802FFFF54
:102AC000FF000500DA10D703DF0033803C40E177D8
:102AD0000000FFFF00C20100C0000000000800006D
:102AE00000000000000000000000000053554343B8
:102AF0004553530073657420776C616E5F6770692E
:102B00006F203237000000007365742077656273B0
:102B10006F636B65745F6770696F20323600000009
:102B20007365742061705F6770696F2032350000D3
:102B300073657420636F6D6D5F6770696F205049B6
:102B40004E204E554D000000736574206E65745F15
:102B50004750494F2050494E204E554D000000002F
:102B600073657420636C69656E74735F6770696FF9
:102B70002050494E204E554D00000000746573747E
:102B800000000000696D6167655F7472616E736655
:102B90006572203130300D0A000000001000002066
:102BA000F8B500BFF8BC08BC9E467047B51B400096
:102BB000F1004000F8B500BFF8BC08BC9E46704765
:042BC000CD00400004
:102BC400BFF35F8F0138FBD17047000000093D005F
:102BD40000000000FC02002064030020CC0300205D
:102BE40000000000000000000000000000000000E1
:102BF40000000000000000000000000000000000D1
:102C040000000000000000000000000000000000C0
:102C140000000000000000000000000000000000B0
:102C240000000000000000000000000000000000A0
:102C34000000000000000000000000000000000090
:102C44000000000000000000000000000000000080
:102C54000000000000000000000000000000000070
:102C64000000000000000000000000000000000060
:102C7400000000000000000001000000000000004F
:102C84000E33CDAB34126DE6ECDE05000B00000014
:102C94000000000000000000000000000000000030
:102CA4000000000000000000000000000000000020
:102CB4000000000000000000000000000000000010
:102CC4000000000000000000000000000000000000
:0C2FF4000000000000000000E0080020C9
:04000005004013653F
:00000001FF
